S020000053696D706C652043616C63756C61746F7220202D204156522E73726563FA
S11300000C942A000C943F000C943F000C943F0085
S11300100C943F000C943F000C943F000C943F0060
S11300200C943F000C943F000C943F000C943F0050
S11300300C943F000C943F000C943F000C943F0040
S11300400C943F000C943F000C943F000C943F0030
S11300500C943F0011241FBECFE5D8E0DEBFCDBF16
S113006011E0A0E6B0E0ECE1F2E102C005900D92EF
S1130070A431B107D9F70E9480010C940C090C94A7
S11300800000813019F130F08230E1F1833009F45D
S113009055C00895442319F0413069F008952AB3F6
S11300A081E090E002C0880F991F6A95E2F780957D
S11300B082238ABB08952AB381E090E002C0880FAE
S11300C0991F6A95E2F7822B8ABB0895442319F09D
S11300D0413069F0089527B381E090E002C0880FB1
S11300E0991F6A95E2F78095822387BB089527B309
S11300F081E090E002C0880F991F6A95E2F7822B95
S113010087BB0895442319F0413069F0089524B35E
S113011081E090E002C0880F991F6A95E2F780950C
S1130120822384BB089524B381E090E002C0880F49
S1130130991F6A95E2F7822B84BB0895442319F032
S1130140413069F0089521B381E090E002C0880F46
S1130150991F6A95E2F78095822381BB089521B3A4
S113016081E090E002C0880F991F6A95E2F7822B24
S113017081BB0895813019F130F08230E1F1833090
S113018009F455C00895442319F0413069F00895E5
S11301902BB381E090E002C0880F991F6A95E2F7C3
S11301A0809582238BBB08952BB381E090E002C03D
S11301B0880F991F6A95E2F7822B8BBB089544231D
S11301C019F0413069F0089528B381E090E002C04D
S11301D0880F991F6A95E2F78095822388BB08955A
S11301E028B381E090E002C0880F991F6A95E2F776
S11301F0822B88BB0895442319F0413069F0089597
S113020025B381E090E002C0880F991F6A95E2F758
S11302108095822385BB089525B381E090E002C0D8
S1130220880F991F6A95E2F7822B85BB08954423B2
S113023019F0413069F0089522B381E090E002C0E2
S1130240880F991F6A95E2F78095822382BB0895EF
S113025022B381E090E002C0880F991F6A95E2F70B
S1130260822B82BB0895813081F028F08230B9F06E
S11302708330F9F027C089B390E002C09595879543
S11302806A95E2F7982F91701DC086B390E002C082
S1130290959587956A95E2F7982F917013C083B36B
S11302A090E002C0959587956A95E2F7982F917032
S11302B009C083B390E002C0959587956A95E2F7EB
S11302C0982F9170892F0895813059F028F0823049
S11302D069F0833081F0089541E080E00E94BA0023
S11302E0089541E081E00E94BA00089541E082E06F
S11302F00E94BA00089541E083E00E94BA00089584
S11303000E940B030E94A5040E943D050E94F8056B
S1130310C82F823409F449C018F4813441F0FFC075
S1130320833409F480C0843409F4BBC0F8C00E944B
S1130330570488E890E00E945F0360E081E00E9437
S1130340610484E990E00E945F032FEF8DE399E458
S1130350215080409040E1F700C000000E946A05EF
S11303606B017C010E9457048CE990E00E945F03BA
S113037060E081E00E94610484E990E00E945F03F0
S11303802FEF8DE399E4215080409040E1F700C0C5
S113039000000E946A059B01AC01C701B6010E94DE
S11303A02A074C2F0E941506AFCF0E94570488E8F5
S11303B090E00E945F0360E081E00E94610484E9B0
S11303C090E00E945F032FEF8DE399E42150804079
S11303D09040E1F700C000000E946A056B017C01B7
S11303E00E9457048CE990E00E945F0360E081E082
S11303F00E94610484E990E00E945F032FEF8DE383
S113040099E4215080409040E1F700C000000E9430
S11304106A059B01AC01C701B6010E947D084C2FFF
S11304200E94150671CF0E94570488E890E00E944C
S11304305F0360E081E00E94610484E990E00E942F
S11304405F032FEF8DE399E4215080409040E1F762
S113045000C000000E946A056B017C010E945704E1
S11304608CE990E00E945F0360E081E00E946104F7
S113047084E990E00E945F032FEF8DE399E421501B
S113048080409040E1F700C000000E946A059B0193
S1130490AC01C701B6010E94B8064C2F0E94150694
S11304A033CF0E94570488E890E00E945F0360E025
S11304B081E00E94610484E990E00E945F032FEFD1
S11304C085EA9EE0215080409040E1F700C00000A2
S11304D00E946A056B017C010E9457048CE990E03C
S11304E00E945F0360E081E00E94610484E990E07F
S11304F00E945F032FEF85EA9EE0215080409040E8
S1130500E1F700C000000E946A059B01AC01C7012D
S1130510B6010E94B9064C2F0E941506F5CE0E9422
S1130520570489EA90E00E945F0360E081E00E9442
S1130530610487EB90E00E945F032FEF87EA91E666
S1130540215080409040E1F700C00000DDCECF9301
S1130550C82F482F417064E080E00E94BA00C1FBBC
S1130560442740F965E080E00E94BA00C2FB4427BA
S113057040F966E080E00E94BA00C3FB442740F9DA
S113058067E080E00E94BA00CF91089541E063E003
S113059081E00E94BA008FE99FE00197F1F700C063
S11305A0000040E063E081E00E94BA000895CF9328
S11305B0C82F41E061E081E00E94BA0040E062E0BF
S11305C081E00E94BA008C2F82958F700E94A7024E
S11305D00E94C6028C2F0E94A7020E94C602CF91DD
S11305E00895CF93C82F40E061E081E00E94BA00F3
S11305F040E062E081E00E94BA008C2F82958F7007
S11306000E94A7020E94C6028C2F0E94A7020E9489
S1130610C602CF91089541E061E081E00E9441006B
S113062041E062E081E00E94410041E063E081E05A
S11306300E94410041E064E080E00E94410041E00A
S113064065E080E00E94410041E066E080E00E94B5
S1130650410041E067E080E00E9441002FE785EB24
S113066091E0215080409040E1F700C0000040E05C
S113067061E081E00E94BA0040E062E081E00E9413
S1130680BA0082E00E94A7020E94C60288E20E9489
S1130690F10220EF2A95F1F78FE00E94F10280EF3A
S11306A08A95F1F781E00E94F1028FE39FE10197BF
S11306B0F1F700C0000086E00E94F10208950F9354
S11306C01F93CF93009729F40CC00E94D702CF5FE9
S11306D002C08C01C0E0F801EC0FF11D8081811192
S11306E0F4CFCF911F910F9108954F925F926F9223
S11306F07F928F929F92AF92BF92CF92DF92EF92AE
S1130700FF920F931F93CF93DF93CDB7DEB760971C
S11307100FB6F894DEBF0FBECDBF4B015C01042FB2
S113072020E030E0A9010E94250788234CF4B7FAA1
S1130730B094B7F8B094412C512C3201439403C0C7
S1130740412C512C3201C501B4010E949C076B015C
S11307507C010E94CB079B01AC01C501B4010E943E
S1130760B8064B015C01C114D104E104F104D1F4D5
S113077080E3898311E01CC0C701B6012AE030E0A0
S113078040E050E00E94EA08E1E0F0E0EC0FFD1FD9
S1130790E10FF11D605D6083C22ED32EE42EF52E91
S11307A01F5F01C010E0C114D104E104F10421F77A
S11307B045284628472849F0E1E0F0E0EC0FFD1F0A
S11307C0E10FF11D8DE280831F5F9FEF910F80E0A9
S11307D012C0A1E0B0E0AC0FBD1FA80FB11D2C9159
S11307E0E1E0F0E0EC0FFD1FE90FF11D30813C93D7
S11307F020838F5F9150891760F30023B1F1E1E00A
S1130800F0E0EC0FFD1FE10FF11D8EE280831F5F0E
S113081027C020E030E040E251E4C501B4010E9469
S11308207D084B015C010E949C07EE24E394E10ED9
S1130830E1E0F0E0EC0FFD1FE10FF11D80E3860F16
S1130840808370E080E090E00E94CD079B01AC01C2
S1130850C501B4010E94B8064B015C010F2D1E2D89
S1130860FF24FA94F00E0111D4CFE1E0F0E0EC0F94
S1130870FD1FE10FF11D1082CE0101960E945F035E
S113088060960FB6F894DEBF0FBECDBFDF91CF9157
S11308901F910F91FF90EF90DF90CF90BF90AF909A
S11308A09F908F907F906F905F904F90089581E01C
S11308B00E94F1028FE39FE10197F1F700C000006D
S11308C00895882319F0813029F4605C862F8068AC
S11308D00E94F1020895EF92FF920F931F93CF931A
S11308E0DF938B01E42ED22F8770F82E90E0880FCF
S11308F0991F880F991F880F991F80640E94F10225
S1130900C0E007C0F801EC0FF11D80810E94D702FE
S1130910CF5FC830B8F3EE2021F081E0E81621F073
S113092006C080E88D0F05C080EC8D0F02C080E802
S11309308D0F0E94F1028F2D0E94D702DF91CF917B
S11309401F910F91FF90EF900895EF92FF921F93E4
S1130950CF93DF9310E014C0C12FD0E0CE018459AF
S11309609F4F7C01CC58DF4F40E0FC0160818881BF
S11309700E944100F701608188810E9464011F5F29
S1130980143050F310E015C0C12FD0E0CE018859C7
S11309909F4F7C01C059DF4F41E0FC016081888199
S11309A00E94410041E0F701608188810E94BA0001
S11309B01F5F143048F3DF91CF911F91FF90EF90A8
S11309C00895DF92EF92FF920F931F93CF93DF93DB
S11309D0DD24DA94D0E045C0ED2EF12CD701A859DE
S11309E0BF4FF701E059FF4F40E06C9180810E94B6
S11309F0BA00C0E026C00C2F10E0D801A459BF4FA4
S1130A00F801EC58FF4F6C9180810E9433018111F1
S1130A1017C0F801E459FF4F6081F801EC58FF4F0B
S1130A2080810E9433018823A1F3F801EE0FFF1F98
S1130A30EE0FFF1FE858FF4FEE0DFF1DD08003C0DF
S1130A40CF5FC430C0F2C43078F0D701A859BF4F8B
S1130A50F701E059FF4F41E06C9180810E94BA0098
S1130A60DF5FD43008F4B8CF8D2DDF91CF911F9183
S1130A700F91FF90EF90DF9008950E94570460E07B
S1130A8080E00E94610482EC90E00E945F0360E0D9
S1130A9081E00E9461048FEC90E00E945F032FE0EC
S1130AA041E060E670E080E00E946B042FEF87EA8B
S1130AB091E6215080409040E1F700C000000E9480
S1130AC0570460E080E00E9461048EED90E00E9493
S1130AD05F0308954F925F926F927F928F929F92DD
S1130AE0AF92BF92CF92DF92EF92FF92CF93DF93B8
S1130AF00F2EFDECCF2EFCECDF2EED2CFDE3FF2EB4
S1130B00F02DD0E0412C512C3201530142010E94BE
S1130B10E104C82F8F3FD9F380ED8C0F8A3008F0A1
S1130B2046C0D11120C020E030E040E251E4C501CC
S1130B30B4010E947D084B015C016C2F70E060538E
S1130B407109072E000C880B990B0E94CD079B019D
S1130B50AC01C501B4010E94B9064B015C018C2FA4
S1130B600E94D702D4CF6C2F70E060537109072E16
S1130B70000C880B990B0E94CD07A70196010E94D7
S1130B807D089B01AC01C301B2010E94B9062B018F
S1130B903C012DEC3CEC4CEC5DE3C701B6010E943A
S1130BA07D086B017C018C2F0E94D702B0CFCA3222
S1130BB039F4D111ACCF8EE20E94D702D1E0A7CF95
S1130BC0CD3309F0A4CFA3019201C501B4010E9461
S1130BD0B906DF91CF91FF90EF90DF90CF90BF9057
S1130BE0AF909F908F907F906F905F904F900895FB
S1130BF0CF930E94E104C82F8F3FD9F38FEB8C0F62
S1130C008430B8F760E081E00E9461048C2F0E9478
S1130C10D7022FEF83ED90E3215080409040E1F71D
S1130C2000C000008C2FCF910895CF92DF92EF92F5
S1130C30FF92CF936B017C01C42F0E94570480EF75
S1130C4090E00E945F03C23429F118F4C13439F0F2
S1130C5072C0C334D1F1C43409F452C06CC08BEFF8
S1130C6090E00E945F0360E081E00E94610480E004
S1130C7091E00E945F0343E0C701B6010E9475033F
S1130C802FEF87EA91E6215080409040E1F700C0C1
S1130C90000068C085E091E00E945F0360E081E0AD
S1130CA00E94610480E091E00E945F0343E0C70179
S1130CB0B6010E9475032FEF87EA91E62150804028
S1130CC09040E1F700C000004DC08AE091E00E942E
S1130CD05F0360E081E00E94610480E091E00E9493
S1130CE05F0343E0C701B6010E9475032FEF87EA53
S1130CF091E6215080409040E1F700C0000032C0EE
S1130D0080E191E00E945F0360E081E00E94610461
S1130D1080E091E00E945F0343E0C701B6010E94B6
S1130D2075032FEF87EA91E6215080409040E1F768
S1130D3000C0000017C00E94570489EA90E00E9496
S1130D405F0360E081E00E94610487EB90E00E9411
S1130D505F032FEF87EA91E6215080409040E1F74E
S1130D6000C00000CF91FF90EF90DF90CF900895E6
S1130D705058BB27AA270E94D0060C9443080E940F
S1130D80350838F00E943C0820F039F49F3F19F4EC
S1130D9026F40C9432080EF4E095E7FB0C942C082E
S1130DA0E92F0E94540858F3BA176207730784079F
S1130DB0950720F079F4A6F50C9476080EF4E095E6
S1130DC00B2EBA2FA02D0B01B90190010C01CA0101
S1130DD0A0011124FF27591B99F0593F50F4503EAC
S1130DE068F11A16F040A22F232F342F4427585F9E
S1130DF0F3CF469537952795A795F0405395C9F7B6
S1130E007EF41F16BA0B620B730B840BBAF091506D
S1130E10A1F0FF0FBB1F661F771F881FC2F70EC00C
S1130E20BA0F621F731F841F48F4879577956795DF
S1130E30B795F7959E3F08F0B0CF9395880F08F0CB
S1130E409927EE0F9795879508950E94080808F44E
S1130E5081E008950E943E070C9443080E943C08D8
S1130E6058F00E94350840F029F45F3F29F00C94B3
S1130E702C0851110C9477080C9432080E945408E1
S1130E8068F39923B1F3552391F3951B550BBB27B5
S1130E90AA2762177307840738F09F5F5F4F220FFA
S1130EA0331F441FAA1FA9F335D00E2E3AF0E0E8F1
S1130EB032D091505040E695001CCAF72BD0FE2F3B
S1130EC029D0660F771F881FBB1F261737074807CF
S1130ED0AB07B0E809F0BB0B802DBF01FF27935887
S1130EE05F4F3AF09E3F510578F00C942C080C9417
S1130EF077085F3FE4F3983ED4F38695779567953A
S1130F00B795F7959F5FC9F7880F911D96958795BB
S1130F1097F90895E1E0660F771F881FBB1F6217DA
S1130F2073078407BA0720F0621B730B840BBA0B98
S1130F30EE1F88F7E09508950E945C0888F09F579B
S1130F4098F0B92F9927B751B0F0E1F0660F771FE9
S1130F50881F991F1AF0BA95C9F714C0B13091F0DF
S1130F600E947608B1E008950C947608672F782FD4
S1130F708827B85F39F0B93FCCF3869577956795A4
S1130F80B395D9F73EF490958095709561957F4F10
S1130F908F4F9F4F0895E89409C097FB3EF49095B6
S1130FA08095709561957F4F8F4F9F4F9923A9F03E
S1130FB0F92F96E9BB279395F695879577956795CD
S1130FC0B795F111F8CFFAF4BB0F11F460FF1BC011
S1130FD06F5F7F4F8F4F9F4F16C0882311F096E9A4
S1130FE011C0772321F09EE8872F762F05C0662352
S1130FF071F096E8862F70E060E02AF09A95660F0B
S1131000771F881FDAF7880F9695879597F90895C3
S1131010990F0008550FAA0BE0E8FEEF1616170605
S1131020E807F907C0F012161306E407F50798F06D
S1131030621B730B840B950B39F40A2661F0232B86
S1131040242B252B21F408950A2609F4A140A69502
S11310508FEF811D811D089597F99F6780E870E0E7
S113106060E008959FEF80EC089500240A9416161A
S1131070170618060906089500240A941216130682
S1131080140605060895092E0394000C11F4882310
S113109052F0BB0F40F4BF2B11F460FF04C06F5F2C
S11310A07F4F8F4F9F4F089557FD9058440F551F02
S11310B059F05F3F71F04795880F97FB991F61F0D6
S11310C09F3F79F087950895121613061406551F4D
S11310D0F2CF4695F1DF08C0161617061806991FB9
S11310E0F1CF86957105610508940895E894BB27AE
S11310F066277727CB0197F908950E9490080C94EE
S113110043080E94350838F00E943C0820F09523DB
S113111011F00C942C080C94320811240C947708C8
S11311200E94540870F3959FC1F3950F50E0551F2A
S1131130629FF001729FBB27F00DB11D639FAA2728
S1131140F00DB11DAA1F649F6627B00DA11D661F77
S1131150829F2227B00DA11D621F739FB00DA11D98
S1131160621F839FA00D611D221F749F3327A00D52
S1131170611D231F849F600D211D822F762F6A2FEE
S113118011249F5750409AF0F1F088234AF0EE0F53
S1131190FF1FBB1F661F771F881F91505040A9F780
S11311A09E3F510580F00C942C080C9477085F3F07
S11311B0E4F3983ED4F3869577956795B795F795BC
S11311C0E7959F5FC1F7FE2B880F911D9695879534
S11311D097F90895A1E21A2EAA1BBB1BFD010DC0AD
S11311E0AA1FBB1FEE1FFF1FA217B307E407F507D3
S11311F020F0A21BB30BE40BF50B661F771F881FAF
S1131200991F1A9469F760957095809590959B0144
S10F1210AC01BD01CF010895F894FFCF9C
S113121C00000A00110E000004050607030405066D
S113122C01010101020202023738394134353642D8
S113123C313233432A303D44456E7465722046691D
S113124C727374004E756D6265723A00456E746506
S113125C72205365636F6E64004572726F722E2038
S113126C506C656173650054727920616761696EB5
S113127C210053696D706C652043616C632E0042D0
S113128C6173656C204D6F68616D65642E00456EED
S113129C746572204F7065726174696F6E3A2000C8
S11312AC526573756C74206F6620004469762E0049
S11312BC69733A20004D756C2E00446966662E00E5
S10712CC53756D00E5
S9030000FC
